{
  "contractName": "Deathnote",
  "abi": [
    {
      "constant": true,
      "inputs": [
        {
          "name": "",
          "type": "uint256"
        }
      ],
      "name": "deaths",
      "outputs": [
        {
          "name": "owner",
          "type": "address"
        },
        {
          "name": "name",
          "type": "string"
        },
        {
          "name": "conditions",
          "type": "string"
        },
        {
          "name": "timeOfDeath",
          "type": "string"
        },
        {
          "name": "img",
          "type": "string"
        }
      ],
      "payable": false,
      "stateMutability": "view",
      "type": "function"
    },
    {
      "constant": false,
      "inputs": [],
      "name": "renounceOwnership",
      "outputs": [],
      "payable": false,
      "stateMutability": "nonpayable",
      "type": "function"
    },
    {
      "constant": true,
      "inputs": [
        {
          "name": "",
          "type": "uint256"
        }
      ],
      "name": "deathsOwner",
      "outputs": [
        {
          "name": "",
          "type": "address"
        }
      ],
      "payable": false,
      "stateMutability": "view",
      "type": "function"
    },
    {
      "constant": true,
      "inputs": [],
      "name": "owner",
      "outputs": [
        {
          "name": "",
          "type": "address"
        }
      ],
      "payable": false,
      "stateMutability": "view",
      "type": "function"
    },
    {
      "constant": true,
      "inputs": [],
      "name": "isOwner",
      "outputs": [
        {
          "name": "",
          "type": "bool"
        }
      ],
      "payable": false,
      "stateMutability": "view",
      "type": "function"
    },
    {
      "constant": true,
      "inputs": [
        {
          "name": "",
          "type": "address"
        },
        {
          "name": "",
          "type": "uint256"
        }
      ],
      "name": "deathsNotesOwner",
      "outputs": [
        {
          "name": "",
          "type": "uint256"
        }
      ],
      "payable": false,
      "stateMutability": "view",
      "type": "function"
    },
    {
      "constant": false,
      "inputs": [
        {
          "name": "newOwner",
          "type": "address"
        }
      ],
      "name": "transferOwnership",
      "outputs": [],
      "payable": false,
      "stateMutability": "nonpayable",
      "type": "function"
    },
    {
      "anonymous": false,
      "inputs": [
        {
          "indexed": false,
          "name": "id",
          "type": "uint256"
        },
        {
          "indexed": false,
          "name": "owner",
          "type": "address"
        },
        {
          "indexed": false,
          "name": "name",
          "type": "string"
        },
        {
          "indexed": false,
          "name": "conditions",
          "type": "string"
        },
        {
          "indexed": false,
          "name": "timeOfDeath",
          "type": "string"
        },
        {
          "indexed": false,
          "name": "img",
          "type": "string"
        }
      ],
      "name": "NewDeath",
      "type": "event"
    },
    {
      "anonymous": false,
      "inputs": [
        {
          "indexed": true,
          "name": "previousOwner",
          "type": "address"
        },
        {
          "indexed": true,
          "name": "newOwner",
          "type": "address"
        }
      ],
      "name": "OwnershipTransferred",
      "type": "event"
    },
    {
      "constant": false,
      "inputs": [
        {
          "name": "_name",
          "type": "string"
        },
        {
          "name": "_conditions",
          "type": "string"
        },
        {
          "name": "_date",
          "type": "string"
        },
        {
          "name": "_img",
          "type": "string"
        }
      ],
      "name": "addDeath",
      "outputs": [],
      "payable": true,
      "stateMutability": "payable",
      "type": "function"
    },
    {
      "constant": true,
      "inputs": [
        {
          "name": "_id",
          "type": "uint256"
        }
      ],
      "name": "getDeath",
      "outputs": [
        {
          "name": "id",
          "type": "uint256"
        },
        {
          "name": "owner",
          "type": "address"
        },
        {
          "name": "name",
          "type": "string"
        },
        {
          "name": "conditions",
          "type": "string"
        },
        {
          "name": "timeOfDeath",
          "type": "string"
        },
        {
          "name": "img",
          "type": "string"
        }
      ],
      "payable": false,
      "stateMutability": "view",
      "type": "function"
    },
    {
      "constant": true,
      "inputs": [],
      "name": "getDeathsLength",
      "outputs": [
        {
          "name": "",
          "type": "uint256"
        }
      ],
      "payable": false,
      "stateMutability": "view",
      "type": "function"
    },
    {
      "constant": false,
      "inputs": [
        {
          "name": "_fee",
          "type": "uint256"
        }
      ],
      "name": "setDeathFee",
      "outputs": [],
      "payable": false,
      "stateMutability": "nonpayable",
      "type": "function"
    },
    {
      "constant": true,
      "inputs": [],
      "name": "getDeathFee",
      "outputs": [
        {
          "name": "",
          "type": "uint256"
        }
      ],
      "payable": false,
      "stateMutability": "view",
      "type": "function"
    },
    {
      "constant": false,
      "inputs": [],
      "name": "withdraw",
      "outputs": [],
      "payable": false,
      "stateMutability": "nonpayable",
      "type": "function"
    },
    {
      "constant": true,
      "inputs": [],
      "name": "getBalance",
      "outputs": [
        {
          "name": "",
          "type": "uint256"
        }
      ],
      "payable": false,
      "stateMutability": "view",
      "type": "function"
    },
    {
      "constant": true,
      "inputs": [],
      "name": "getOwnerNotes",
      "outputs": [
        {
          "name": "",
          "type": "uint256[]"
        }
      ],
      "payable": false,
      "stateMutability": "view",
      "type": "function"
    },
    {
      "constant": true,
      "inputs": [],
      "name": "getOwnerNotesLength",
      "outputs": [
        {
          "name": "",
          "type": "uint256"
        }
      ],
      "payable": false,
      "stateMutability": "view",
      "type": "function"
    },
    {
      "constant": true,
      "inputs": [
        {
          "name": "_id",
          "type": "uint256"
        }
      ],
      "name": "getOwnerNote",
      "outputs": [
        {
          "name": "",
          "type": "uint256"
        }
      ],
      "payable": false,
      "stateMutability": "view",
      "type": "function"
    }
  ],
  "bytecode": "0x608060405266038d7ea4c68000600155336000806101000a81548173ffffffffffffffffffffffffffffffffffffffff021916908373ffffffffffffffffffffffffffffffffffffffff1602179055506000809054906101000a900473ffffffffffffffffffffffffffffffffffffffff1673ffffffffffffffffffffffffffffffffffffffff16600073ffffffffffffffffffffffffffffffffffffffff167f8be0079c531659141344cd1fd0a4f28419497f9722a3daafe3b4186f6b6457e060405160405180910390a3611e4f806100da6000396000f3fe6080604052600436106100fe5760003560e01c80638c2cc70611610095578063aa6bfc8e11610064578063aa6bfc8e146105b0578063b6160fbb146107e2578063deb6277b14610a62578063ed00c16714610ab1578063f2fde38b14610b20576100fe565b80638c2cc706146104c45780638da5cb5b146104ff5780638f32d59b14610556578063917c0ce114610585576100fe565b806349a7a343116100d157806349a7a3431461039b5780635a04076614610407578063715018a6146104325780637b6620d114610449576100fe565b806312065fe0146101035780633ccfd60b1461012e57806341eda50c1461014557806344f1a11f14610170575b600080fd5b34801561010f57600080fd5b50610118610b71565b6040518082815260200191505060405180910390f35b34801561013a57600080fd5b50610143610b90565b005b34801561015157600080fd5b5061015a610c77565b6040518082815260200191505060405180910390f35b34801561017c57600080fd5b506101a96004803603602081101561019357600080fd5b8101908080359060200190929190505050610c84565b604051808673ffffffffffffffffffffffffffffffffffffffff1673ffffffffffffffffffffffffffffffffffffffff16815260200180602001806020018060200180602001858103855289818151815260200191508051906020019080838360005b8381101561022757808201518184015260208101905061020c565b50505050905090810190601f1680156102545780820380516001836020036101000a031916815260200191505b50858103845288818151815260200191508051906020019080838360005b8381101561028d578082015181840152602081019050610272565b50505050905090810190601f1680156102ba5780820380516001836020036101000a031916815260200191505b50858103835287818151815260200191508051906020019080838360005b838110156102f35780820151818401526020810190506102d8565b50505050905090810190601f1680156103205780820380516001836020036101000a031916815260200191505b50858103825286818151815260200191508051906020019080838360005b8381101561035957808201518184015260208101905061033e565b50505050905090810190601f1680156103865780820380516001836020036101000a031916815260200191505b50995050505050505050505060405180910390f35b3480156103a757600080fd5b506103b0610f47565b6040518080602001828103825283818151815260200191508051906020019060200280838360005b838110156103f35780820151818401526020810190506103d8565b505050509050019250505060405180910390f35b34801561041357600080fd5b5061041c610fdc565b6040518082815260200191505060405180910390f35b34801561043e57600080fd5b50610447611060565b005b34801561045557600080fd5b506104826004803603602081101561046c57600080fd5b8101908080359060200190929190505050611199565b604051808273ffffffffffffffffffffffffffffffffffffffff1673ffffffffffffffffffffffffffffffffffffffff16815260200191505060405180910390f35b3480156104d057600080fd5b506104fd600480360360208110156104e757600080fd5b81019080803590602001909291905050506111cc565b005b34801561050b57600080fd5b50610514611250565b604051808273ffffffffffffffffffffffffffffffffffffffff1673ffffffffffffffffffffffffffffffffffffffff16815260200191505060405180910390f35b34801561056257600080fd5b5061056b611279565b604051808215151515815260200191505060405180910390f35b34801561059157600080fd5b5061059a6112d0565b6040518082815260200191505060405180910390f35b3480156105bc57600080fd5b506105e9600480360360208110156105d357600080fd5b810190808035906020019092919050505061131a565b604051808781526020018673ffffffffffffffffffffffffffffffffffffffff1673ffffffffffffffffffffffffffffffffffffffff16815260200180602001806020018060200180602001858103855289818151815260200191508051906020019080838360005b8381101561066d578082015181840152602081019050610652565b50505050905090810190601f16801561069a5780820380516001836020036101000a031916815260200191505b50858103845288818151815260200191508051906020019080838360005b838110156106d35780820151818401526020810190506106b8565b50505050905090810190601f1680156107005780820380516001836020036101000a031916815260200191505b50858103835287818151815260200191508051906020019080838360005b8381101561073957808201518184015260208101905061071e565b50505050905090810190601f1680156107665780820380516001836020036101000a031916815260200191505b50858103825286818151815260200191508051906020019080838360005b8381101561079f578082015181840152602081019050610784565b50505050905090810190601f1680156107cc5780820380516001836020036101000a031916815260200191505b509a505050505050505050505060405180910390f35b610a60600480360360808110156107f857600080fd5b810190808035906020019064010000000081111561081557600080fd5b82018360208201111561082757600080fd5b8035906020019184600183028401116401000000008311171561084957600080fd5b91908080601f016020809104026020016040519081016040528093929190818152602001838380828437600081840152601f19601f820116905080830192505050505050509192919290803590602001906401000000008111156108ac57600080fd5b8201836020820111156108be57600080fd5b803590602001918460018302840111640100000000831117156108e057600080fd5b91908080601f016020809104026020016040519081016040528093929190818152602001838380828437600081840152601f19601f8201169050808301925050505050505091929192908035906020019064010000000081111561094357600080fd5b82018360208201111561095557600080fd5b8035906020019184600183028401116401000000008311171561097757600080fd5b91908080601f016020809104026020016040519081016040528093929190818152602001838380828437600081840152601f19601f820116905080830192505050505050509192919290803590602001906401000000008111156109da57600080fd5b8201836020820111156109ec57600080fd5b80359060200191846001830284011164010000000083111715610a0e57600080fd5b91908080601f016020809104026020016040519081016040528093929190818152602001838380828437600081840152601f19601f82011690508083019250505050505050919291929050505061167e565b005b348015610a6e57600080fd5b50610a9b60048036036020811015610a8557600080fd5b8101908080359060200190929190505050611b02565b6040518082815260200191505060405180910390f35b348015610abd57600080fd5b50610b0a60048036036040811015610ad457600080fd5b81019080803573ffffffffffffffffffffffffffffffffffffffff16906020019092919080359060200190929190505050611b60565b6040518082815260200191505060405180910390f35b348015610b2c57600080fd5b50610b6f60048036036020811015610b4357600080fd5b81019080803573ffffffffffffffffffffffffffffffffffffffff169060200190929190505050611b8e565b005b60003073ffffffffffffffffffffffffffffffffffffffff1631905090565b610b98611279565b610c0a576040517f08c379a00000000000000000000000000000000000000000000000000000000081526004018080602001828103825260208152602001807f4f776e61626c653a2063616c6c6572206973206e6f7420746865206f776e657281525060200191505060405180910390fd5b6000610c14611250565b90508073ffffffffffffffffffffffffffffffffffffffff166108fc3073ffffffffffffffffffffffffffffffffffffffff16319081150290604051600060405180830381858888f19350505050158015610c73573d6000803e3d6000fd5b5050565b6000600280549050905090565b60028181548110610c9157fe5b90600052602060002090600502016000915090508060000160009054906101000a900473ffffffffffffffffffffffffffffffffffffffff1690806001018054600181600116156101000203166002900480601f016020809104026020016040519081016040528092919081815260200182805460018160011615610100020316600290048015610d635780601f10610d3857610100808354040283529160200191610d63565b820191906000526020600020905b815481529060010190602001808311610d4657829003601f168201915b505050505090806002018054600181600116156101000203166002900480601f016020809104026020016040519081016040528092919081815260200182805460018160011615610100020316600290048015610e015780601f10610dd657610100808354040283529160200191610e01565b820191906000526020600020905b815481529060010190602001808311610de457829003601f168201915b505050505090806003018054600181600116156101000203166002900480601f016020809104026020016040519081016040528092919081815260200182805460018160011615610100020316600290048015610e9f5780601f10610e7457610100808354040283529160200191610e9f565b820191906000526020600020905b815481529060010190602001808311610e8257829003601f168201915b505050505090806004018054600181600116156101000203166002900480601f016020809104026020016040519081016040528092919081815260200182805460018160011615610100020316600290048015610f3d5780601f10610f1257610100808354040283529160200191610f3d565b820191906000526020600020905b815481529060010190602001808311610f2057829003601f168201915b5050505050905085565b6060600460003373ffffffffffffffffffffffffffffffffffffffff1673ffffffffffffffffffffffffffffffffffffffff168152602001908152602001600020805480602002602001604051908101604052809291908181526020018280548015610fd257602002820191906000526020600020905b815481526020019060010190808311610fbe575b5050505050905090565b6000610fe6611279565b611058576040517f08c379a00000000000000000000000000000000000000000000000000000000081526004018080602001828103825260208152602001807f4f776e61626c653a2063616c6c6572206973206e6f7420746865206f776e657281525060200191505060405180910390fd5b600154905090565b611068611279565b6110da576040517f08c379a00000000000000000000000000000000000000000000000000000000081526004018080602001828103825260208152602001807f4f776e61626c653a2063616c6c6572206973206e6f7420746865206f776e657281525060200191505060405180910390fd5b600073ffffffffffffffffffffffffffffffffffffffff166000809054906101000a900473ffffffffffffffffffffffffffffffffffffffff1673ffffffffffffffffffffffffffffffffffffffff167f8be0079c531659141344cd1fd0a4f28419497f9722a3daafe3b4186f6b6457e060405160405180910390a360008060006101000a81548173ffffffffffffffffffffffffffffffffffffffff021916908373ffffffffffffffffffffffffffffffffffffffff160217905550565b60036020528060005260406000206000915054906101000a900473ffffffffffffffffffffffffffffffffffffffff1681565b6111d4611279565b611246576040517f08c379a00000000000000000000000000000000000000000000000000000000081526004018080602001828103825260208152602001807f4f776e61626c653a2063616c6c6572206973206e6f7420746865206f776e657281525060200191505060405180910390fd5b8060018190555050565b60008060009054906101000a900473ffffffffffffffffffffffffffffffffffffffff16905090565b60008060009054906101000a900473ffffffffffffffffffffffffffffffffffffffff1673ffffffffffffffffffffffffffffffffffffffff163373ffffffffffffffffffffffffffffffffffffffff1614905090565b6000600460003373ffffffffffffffffffffffffffffffffffffffff1673ffffffffffffffffffffffffffffffffffffffff16815260200190815260200160002080549050905090565b60008060608060608060008710158015611338575060028054905087105b61134157600080fd5b866002888154811061134f57fe5b906000526020600020906005020160000160009054906101000a900473ffffffffffffffffffffffffffffffffffffffff166002898154811061138e57fe5b906000526020600020906005020160010160028a815481106113ac57fe5b906000526020600020906005020160020160028b815481106113ca57fe5b906000526020600020906005020160030160028c815481106113e857fe5b9060005260206000209060050201600401838054600181600116156101000203166002900480601f01602080910402602001604051908101604052809291908181526020018280546001816001161561010002031660029004801561148e5780601f106114635761010080835404028352916020019161148e565b820191906000526020600020905b81548152906001019060200180831161147157829003601f168201915b50505050509350828054600181600116156101000203166002900480601f01602080910402602001604051908101604052809291908181526020018280546001816001161561010002031660029004801561152a5780601f106114ff5761010080835404028352916020019161152a565b820191906000526020600020905b81548152906001019060200180831161150d57829003601f168201915b50505050509250818054600181600116156101000203166002900480601f0160208091040260200160405190810160405280929190818152602001828054600181600116156101000203166002900480156115c65780601f1061159b576101008083540402835291602001916115c6565b820191906000526020600020905b8154815290600101906020018083116115a957829003601f168201915b50505050509150808054600181600116156101000203166002900480601f0160208091040260200160405190810160405280929190818152602001828054600181600116156101000203166002900480156116625780601f1061163757610100808354040283529160200191611662565b820191906000526020600020905b81548152906001019060200180831161164557829003601f168201915b5050505050905095509550955095509550955091939550919395565b6001543410156116f6576040517f08c379a00000000000000000000000000000000000000000000000000000000081526004018080602001828103825260118152602001807f4e6f7420656e6f7567682066756e64732e00000000000000000000000000000081525060200191505060405180910390fd5b600060026040518060a001604052803373ffffffffffffffffffffffffffffffffffffffff168152602001878152602001868152602001858152602001848152509080600181540180825580915050906001820390600052602060002090600502016000909192909190915060008201518160000160006101000a81548173ffffffffffffffffffffffffffffffffffffffff021916908373ffffffffffffffffffffffffffffffffffffffff16021790555060208201518160010190805190602001906117c5929190611d58565b5060408201518160020190805190602001906117e2929190611d58565b5060608201518160030190805190602001906117ff929190611d58565b50608082015181600401908051906020019061181c929190611d58565b5050509050336003600083815260200190815260200160002060006101000a81548173ffffffffffffffffffffffffffffffffffffffff021916908373ffffffffffffffffffffffffffffffffffffffff160217905550600460003373ffffffffffffffffffffffffffffffffffffffff1673ffffffffffffffffffffffffffffffffffffffff1681526020019081526020016000208190806001815401808255809150509060018203906000526020600020016000909192909190915055507f4e201e6faa96fe6dd2aea53cd05e6657452512c491362d8db6540862c1181af4813387878787604051808781526020018673ffffffffffffffffffffffffffffffffffffffff1673ffffffffffffffffffffffffffffffffffffffff16815260200180602001806020018060200180602001858103855289818151815260200191508051906020019080838360005b8381101561198757808201518184015260208101905061196c565b50505050905090810190601f1680156119b45780820380516001836020036101000a031916815260200191505b50858103845288818151815260200191508051906020019080838360005b838110156119ed5780820151818401526020810190506119d2565b50505050905090810190601f168015611a1a5780820380516001836020036101000a031916815260200191505b50858103835287818151815260200191508051906020019080838360005b83811015611a53578082015181840152602081019050611a38565b50505050905090810190601f168015611a805780820380516001836020036101000a031916815260200191505b50858103825286818151815260200191508051906020019080838360005b83811015611ab9578082015181840152602081019050611a9e565b50505050905090810190601f168015611ae65780820380516001836020036101000a031916815260200191505b509a505050505050505050505060405180910390a15050505050565b6000600460003373ffffffffffffffffffffffffffffffffffffffff1673ffffffffffffffffffffffffffffffffffffffff1681526020019081526020016000208281548110611b4e57fe5b90600052602060002001549050919050565b60046020528160005260406000208181548110611b7957fe5b90600052602060002001600091509150505481565b611b96611279565b611c08576040517f08c379a00000000000000000000000000000000000000000000000000000000081526004018080602001828103825260208152602001807f4f776e61626c653a2063616c6c6572206973206e6f7420746865206f776e657281525060200191505060405180910390fd5b611c1181611c14565b50565b600073ffffffffffffffffffffffffffffffffffffffff168173ffffffffffffffffffffffffffffffffffffffff161415611c9a576040517f08c379a0000000000000000000000000000000000000000000000000000000008152600401808060200182810382526026815260200180611dfe6026913960400191505060405180910390fd5b8073ffffffffffffffffffffffffffffffffffffffff166000809054906101000a900473ffffffffffffffffffffffffffffffffffffffff1673ffffffffffffffffffffffffffffffffffffffff167f8be0079c531659141344cd1fd0a4f28419497f9722a3daafe3b4186f6b6457e060405160405180910390a3806000806101000a81548173ffffffffffffffffffffffffffffffffffffffff021916908373ffffffffffffffffffffffffffffffffffffffff16021790555050565b828054600181600116156101000203166002900490600052602060002090601f016020900481019282601f10611d9957805160ff1916838001178555611dc7565b82800160010185558215611dc7579182015b82811115611dc6578251825591602001919060010190611dab565b5b509050611dd49190611dd8565b5090565b611dfa91905b80821115611df6576000816000905550600101611dde565b5090565b9056fe4f776e61626c653a206e6577206f776e657220697320746865207a65726f2061646472657373a165627a7a723058205db2e84467cc9ee758c4fec0f4a50d3d9d54c1d58e025c957b25eb7ffa1abf6a0029",
  "source": "pragma solidity ^0.5.8;\n\nimport  \"./Ownable.sol\";\nimport \"./Safemath.sol\";\n\ncontract Deathnote is Ownable {\n\n  using SafeMath for uint256;\n  event NewDeath(uint id, address owner, string name, string conditions, string timeOfDeath, string img);\n\n  struct Death{\n      address owner;\n      string name;\n      string conditions;\n      string timeOfDeath;\n      string img;\n  }\n\n  uint private deathFee = 0.001 ether;\n  Death[] public deaths;\n  mapping(uint => address) public deathsOwner;\n  mapping(address => uint[]) public deathsNotesOwner;\n\n  function addDeath(string memory _name, string memory _conditions, string memory _date, string memory _img) public payable {\n      require(msg.value >= deathFee, \"Not enough funds.\");\n      uint id = deaths.push(Death(msg.sender, _name, _conditions, _date, _img));\n      deathsOwner[id] = msg.sender;\n      deathsNotesOwner[msg.sender].push(id);\n      emit NewDeath( id, msg.sender, _name, _conditions, _date, _img);\n  }\n  \n  function getDeath(uint _id) public view returns (uint id, address owner, string memory name, string memory conditions, string memory timeOfDeath, string memory img) {\n      require(_id >= 0 && _id < deaths.length);\n      return(_id, deaths[_id].owner, deaths[_id].name, deaths[_id].conditions, deaths[_id].timeOfDeath, deaths[_id].img);\n  }\n\n  function getDeathsLength() public view returns (uint) {\n      return deaths.length;\n  }\n\n  function setDeathFee(uint _fee) public onlyOwner {\n      deathFee = _fee;\n  }\n\n  function getDeathFee() public view onlyOwner returns (uint){\n      return deathFee;\n  }\n\n  function withdraw() public onlyOwner {\n      address payable _owner = owner();\n      _owner.transfer(address(this).balance);\n  }\n\n  function getBalance() public view returns (uint256) {\n    return address(this).balance;\n  }\n\n  function getOwnerNotes() public view returns (uint[] memory) {\n      return deathsNotesOwner[msg.sender];\n  }\n\n  function getOwnerNotesLength() public view returns (uint) {\n      return deathsNotesOwner[msg.sender].length;\n  }\n\n  function getOwnerNote(uint _id) public view returns (uint) {\n      return deathsNotesOwner[msg.sender][_id];\n  }\n}",
  "sourcePath": "/Users/steevepay/Documents/web/dappdeathnote/contracts/Deathnote.sol",
  "compiler": {
    "name": "solc",
    "version": "0.5.8+commit.23d335f2.Linux.g++"
  },
  "schemaVersion": "3.0.10",
  "updatedAt": "2019-06-19T11:14:29.453Z",
  "devdoc": {
    "methods": {
      "isOwner()": {
        "details": "Returns true if the caller is the current owner."
      },
      "owner()": {
        "details": "Returns the address of the current owner."
      },
      "renounceOwnership()": {
        "details": "Leaves the contract without owner. It will not be possible to call `onlyOwner` functions anymore. Can only be called by the current owner.     * > Note: Renouncing ownership will leave the contract without an owner, thereby removing any functionality that is only available to the owner."
      },
      "transferOwnership(address)": {
        "details": "Transfers ownership of the contract to a new account (`newOwner`). Can only be called by the current owner."
      }
    }
  },
  "userdoc": {
    "methods": {}
  }
}